{
  "_format": "hh-sol-artifact-1",
  "contractName": "CarHistory",
  "sourceName": "contracts/CarHistory.sol",
  "abi": [
    {
      "inputs": [],
      "stateMutability": "nonpayable",
      "type": "constructor"
    },
    {
      "inputs": [],
      "name": "AccessControlBadConfirmation",
      "type": "error"
    },
    {
      "inputs": [
        {
          "internalType": "address",
          "name": "account",
          "type": "address"
        },
        {
          "internalType": "bytes32",
          "name": "neededRole",
          "type": "bytes32"
        }
      ],
      "name": "AccessControlUnauthorizedAccount",
      "type": "error"
    },
    {
      "anonymous": false,
      "inputs": [
        {
          "indexed": true,
          "internalType": "uint256",
          "name": "carId",
          "type": "uint256"
        },
        {
          "indexed": false,
          "internalType": "enum CarHistory.EventType",
          "name": "eventType",
          "type": "uint8"
        },
        {
          "indexed": true,
          "internalType": "address",
          "name": "recordedBy",
          "type": "address"
        },
        {
          "indexed": false,
          "internalType": "uint256",
          "name": "timestamp",
          "type": "uint256"
        }
      ],
      "name": "EventRecorded",
      "type": "event"
    },
    {
      "anonymous": false,
      "inputs": [
        {
          "indexed": true,
          "internalType": "uint256",
          "name": "carId",
          "type": "uint256"
        },
        {
          "indexed": false,
          "internalType": "uint256",
          "name": "eventIndex",
          "type": "uint256"
        }
      ],
      "name": "EventVerified",
      "type": "event"
    },
    {
      "anonymous": false,
      "inputs": [
        {
          "indexed": true,
          "internalType": "bytes32",
          "name": "role",
          "type": "bytes32"
        },
        {
          "indexed": true,
          "internalType": "bytes32",
          "name": "previousAdminRole",
          "type": "bytes32"
        },
        {
          "indexed": true,
          "internalType": "bytes32",
          "name": "newAdminRole",
          "type": "bytes32"
        }
      ],
      "name": "RoleAdminChanged",
      "type": "event"
    },
    {
      "anonymous": false,
      "inputs": [
        {
          "indexed": true,
          "internalType": "bytes32",
          "name": "role",
          "type": "bytes32"
        },
        {
          "indexed": true,
          "internalType": "address",
          "name": "account",
          "type": "address"
        },
        {
          "indexed": true,
          "internalType": "address",
          "name": "sender",
          "type": "address"
        }
      ],
      "name": "RoleGranted",
      "type": "event"
    },
    {
      "anonymous": false,
      "inputs": [
        {
          "indexed": true,
          "internalType": "bytes32",
          "name": "role",
          "type": "bytes32"
        },
        {
          "indexed": true,
          "internalType": "address",
          "name": "account",
          "type": "address"
        },
        {
          "indexed": true,
          "internalType": "address",
          "name": "sender",
          "type": "address"
        }
      ],
      "name": "RoleRevoked",
      "type": "event"
    },
    {
      "inputs": [],
      "name": "DEFAULT_ADMIN_ROLE",
      "outputs": [
        {
          "internalType": "bytes32",
          "name": "",
          "type": "bytes32"
        }
      ],
      "stateMutability": "view",
      "type": "function"
    },
    {
      "inputs": [],
      "name": "RECORDER_ROLE",
      "outputs": [
        {
          "internalType": "bytes32",
          "name": "",
          "type": "bytes32"
        }
      ],
      "stateMutability": "view",
      "type": "function"
    },
    {
      "inputs": [
        {
          "internalType": "uint256",
          "name": "",
          "type": "uint256"
        },
        {
          "internalType": "uint256",
          "name": "",
          "type": "uint256"
        }
      ],
      "name": "carHistory",
      "outputs": [
        {
          "internalType": "uint256",
          "name": "carId",
          "type": "uint256"
        },
        {
          "internalType": "enum CarHistory.EventType",
          "name": "eventType",
          "type": "uint8"
        },
        {
          "internalType": "address",
          "name": "recordedBy",
          "type": "address"
        },
        {
          "internalType": "uint256",
          "name": "timestamp",
          "type": "uint256"
        },
        {
          "internalType": "string",
          "name": "description",
          "type": "string"
        },
        {
          "internalType": "string",
          "name": "documentHash",
          "type": "string"
        },
        {
          "internalType": "bool",
          "name": "verified",
          "type": "bool"
        }
      ],
      "stateMutability": "view",
      "type": "function"
    },
    {
      "inputs": [
        {
          "internalType": "uint256",
          "name": "",
          "type": "uint256"
        }
      ],
      "name": "eventCount",
      "outputs": [
        {
          "internalType": "uint256",
          "name": "",
          "type": "uint256"
        }
      ],
      "stateMutability": "view",
      "type": "function"
    },
    {
      "inputs": [
        {
          "internalType": "uint256",
          "name": "_carId",
          "type": "uint256"
        }
      ],
      "name": "getCarHistory",
      "outputs": [
        {
          "components": [
            {
              "internalType": "uint256",
              "name": "carId",
              "type": "uint256"
            },
            {
              "internalType": "enum CarHistory.EventType",
              "name": "eventType",
              "type": "uint8"
            },
            {
              "internalType": "address",
              "name": "recordedBy",
              "type": "address"
            },
            {
              "internalType": "uint256",
              "name": "timestamp",
              "type": "uint256"
            },
            {
              "internalType": "string",
              "name": "description",
              "type": "string"
            },
            {
              "internalType": "string",
              "name": "documentHash",
              "type": "string"
            },
            {
              "internalType": "bool",
              "name": "verified",
              "type": "bool"
            }
          ],
          "internalType": "struct CarHistory.HistoryEvent[]",
          "name": "",
          "type": "tuple[]"
        }
      ],
      "stateMutability": "view",
      "type": "function"
    },
    {
      "inputs": [
        {
          "internalType": "uint256",
          "name": "_carId",
          "type": "uint256"
        },
        {
          "internalType": "uint256",
          "name": "_eventIndex",
          "type": "uint256"
        }
      ],
      "name": "getEvent",
      "outputs": [
        {
          "components": [
            {
              "internalType": "uint256",
              "name": "carId",
              "type": "uint256"
            },
            {
              "internalType": "enum CarHistory.EventType",
              "name": "eventType",
              "type": "uint8"
            },
            {
              "internalType": "address",
              "name": "recordedBy",
              "type": "address"
            },
            {
              "internalType": "uint256",
              "name": "timestamp",
              "type": "uint256"
            },
            {
              "internalType": "string",
              "name": "description",
              "type": "string"
            },
            {
              "internalType": "string",
              "name": "documentHash",
              "type": "string"
            },
            {
              "internalType": "bool",
              "name": "verified",
              "type": "bool"
            }
          ],
          "internalType": "struct CarHistory.HistoryEvent",
          "name": "",
          "type": "tuple"
        }
      ],
      "stateMutability": "view",
      "type": "function"
    },
    {
      "inputs": [
        {
          "internalType": "uint256",
          "name": "_carId",
          "type": "uint256"
        }
      ],
      "name": "getEventCount",
      "outputs": [
        {
          "internalType": "uint256",
          "name": "",
          "type": "uint256"
        }
      ],
      "stateMutability": "view",
      "type": "function"
    },
    {
      "inputs": [
        {
          "internalType": "bytes32",
          "name": "role",
          "type": "bytes32"
        }
      ],
      "name": "getRoleAdmin",
      "outputs": [
        {
          "internalType": "bytes32",
          "name": "",
          "type": "bytes32"
        }
      ],
      "stateMutability": "view",
      "type": "function"
    },
    {
      "inputs": [
        {
          "internalType": "bytes32",
          "name": "role",
          "type": "bytes32"
        },
        {
          "internalType": "address",
          "name": "account",
          "type": "address"
        }
      ],
      "name": "grantRole",
      "outputs": [],
      "stateMutability": "nonpayable",
      "type": "function"
    },
    {
      "inputs": [
        {
          "internalType": "bytes32",
          "name": "role",
          "type": "bytes32"
        },
        {
          "internalType": "address",
          "name": "account",
          "type": "address"
        }
      ],
      "name": "hasRole",
      "outputs": [
        {
          "internalType": "bool",
          "name": "",
          "type": "bool"
        }
      ],
      "stateMutability": "view",
      "type": "function"
    },
    {
      "inputs": [
        {
          "internalType": "uint256",
          "name": "_carId",
          "type": "uint256"
        },
        {
          "internalType": "enum CarHistory.EventType",
          "name": "_eventType",
          "type": "uint8"
        },
        {
          "internalType": "string",
          "name": "_description",
          "type": "string"
        },
        {
          "internalType": "string",
          "name": "_documentHash",
          "type": "string"
        }
      ],
      "name": "recordEvent",
      "outputs": [],
      "stateMutability": "nonpayable",
      "type": "function"
    },
    {
      "inputs": [
        {
          "internalType": "bytes32",
          "name": "role",
          "type": "bytes32"
        },
        {
          "internalType": "address",
          "name": "callerConfirmation",
          "type": "address"
        }
      ],
      "name": "renounceRole",
      "outputs": [],
      "stateMutability": "nonpayable",
      "type": "function"
    },
    {
      "inputs": [
        {
          "internalType": "bytes32",
          "name": "role",
          "type": "bytes32"
        },
        {
          "internalType": "address",
          "name": "account",
          "type": "address"
        }
      ],
      "name": "revokeRole",
      "outputs": [],
      "stateMutability": "nonpayable",
      "type": "function"
    },
    {
      "inputs": [
        {
          "internalType": "bytes4",
          "name": "interfaceId",
          "type": "bytes4"
        }
      ],
      "name": "supportsInterface",
      "outputs": [
        {
          "internalType": "bool",
          "name": "",
          "type": "bool"
        }
      ],
      "stateMutability": "view",
      "type": "function"
    },
    {
      "inputs": [
        {
          "internalType": "uint256",
          "name": "_carId",
          "type": "uint256"
        },
        {
          "internalType": "uint256",
          "name": "_eventIndex",
          "type": "uint256"
        }
      ],
      "name": "verifyEvent",
      "outputs": [],
      "stateMutability": "nonpayable",
      "type": "function"
    }
  ],
  "bytecode": "0x60806040523480156200001157600080fd5b50620000276000801b336200002e60201b60201c565b50620001a3565b60006200004283836200013160201b60201c565b6200012657600160008085815260200190815260200160002060000160008473ffffffffffffffffffffffffffffffffffffffff1673ffffffffffffffffffffffffffffffffffffffff16815260200190815260200160002060006101000a81548160ff021916908315150217905550620000c26200019b60201b60201c565b73ffffffffffffffffffffffffffffffffffffffff168273ffffffffffffffffffffffffffffffffffffffff16847f2f8788117e7eff1d82e926ec794901d17c78024a50270940304540a733656f0d60405160405180910390a4600190506200012b565b600090505b92915050565b600080600084815260200190815260200160002060000160008373ffffffffffffffffffffffffffffffffffffffff1673ffffffffffffffffffffffffffffffffffffffff16815260200190815260200160002060009054906101000a900460ff16905092915050565b600033905090565b611fe180620001b36000396000f3fe608060405234801561001057600080fd5b50600436106100f45760003560e01c80636358853111610097578063bea8658111610066578063bea86581146102ad578063ccfc6795146102cb578063d547741f146102fb578063ee11f1a014610317576100f4565b80636358853114610213578063893492221461022f57806391d148541461025f578063a217fddf1461028f576100f4565b80631c2eaa9c116100d35780631c2eaa9c1461017b578063248a9ca3146101ab5780632f2ff15d146101db57806336568abe146101f7576100f4565b8062ab923b146100f957806301ffc9a71461012f5780630964ce261461015f575b600080fd5b610113600480360381019061010e919061128e565b610347565b6040516101269796959493929190611440565b60405180910390f35b61014960048036038101906101449190611515565b6104f0565b6040516101569190611542565b60405180910390f35b6101796004803603810190610174919061128e565b61056a565b005b6101956004803603810190610190919061155d565b610677565b6040516101a2919061158a565b60405180910390f35b6101c560048036038101906101c091906115db565b610694565b6040516101d29190611617565b60405180910390f35b6101f560048036038101906101f0919061165e565b6106b3565b005b610211600480360381019061020c919061165e565b6106d5565b005b61022d600480360381019061022891906117f8565b610750565b005b6102496004803603810190610244919061155d565b610974565b6040516102569190611a82565b60405180910390f35b6102796004803603810190610274919061165e565b610bca565b6040516102869190611542565b60405180910390f35b610297610c34565b6040516102a49190611617565b60405180910390f35b6102b5610c3b565b6040516102c29190611617565b60405180910390f35b6102e560048036038101906102e0919061155d565b610c5f565b6040516102f2919061158a565b60405180910390f35b6103156004803603810190610310919061165e565b610c77565b005b610331600480360381019061032c919061128e565b610c99565b60405161033e9190611b47565b60405180910390f35b6001602052816000526040600020818154811061036357600080fd5b9060005260206000209060060201600091509150508060000154908060010160009054906101000a900460ff16908060010160019054906101000a900473ffffffffffffffffffffffffffffffffffffffff16908060020154908060030180546103cc90611b98565b80601f01602080910402602001604051908101604052809291908181526020018280546103f890611b98565b80156104455780601f1061041a57610100808354040283529160200191610445565b820191906000526020600020905b81548152906001019060200180831161042857829003601f168201915b50505050509080600401805461045a90611b98565b80601f016020809104026020016040519081016040528092919081815260200182805461048690611b98565b80156104d35780601f106104a8576101008083540402835291602001916104d3565b820191906000526020600020905b8154815290600101906020018083116104b657829003601f168201915b5050505050908060050160009054906101000a900460ff16905087565b60007f7965db0b000000000000000000000000000000000000000000000000000000007bffffffffffffffffffffffffffffffffffffffffffffffffffffffff1916827bffffffffffffffffffffffffffffffffffffffffffffffffffffffff19161480610563575061056282610f23565b5b9050919050565b7ff996da754c790e95d5c7ca3330cfcad529487fe9d1d8edb7afc65076fdf9adb461059481610f8d565b600160008481526020019081526020016000208054905082106105ec576040517f08c379a00000000000000000000000000000000000000000000000000000000081526004016105e390611c15565b60405180910390fd5b6001806000858152602001908152602001600020838154811061061257610611611c35565b5b906000526020600020906006020160050160006101000a81548160ff021916908315150217905550827f63a5ae10c9bc3ad4720ba88068ef49616e05b0a6d477f541fdea3e0fcb9f18138360405161066a919061158a565b60405180910390a2505050565b600060026000838152602001908152602001600020549050919050565b6000806000838152602001908152602001600020600101549050919050565b6106bc82610694565b6106c581610f8d565b6106cf8383610fa1565b50505050565b6106dd611092565b73ffffffffffffffffffffffffffffffffffffffff168173ffffffffffffffffffffffffffffffffffffffff1614610741576040517f6697b23200000000000000000000000000000000000000000000000000000000815260040160405180910390fd5b61074b828261109a565b505050565b7ff996da754c790e95d5c7ca3330cfcad529487fe9d1d8edb7afc65076fdf9adb461077a81610f8d565b60006040518060e001604052808781526020018660088111156107a05761079f6112dd565b5b81526020013373ffffffffffffffffffffffffffffffffffffffff168152602001428152602001858152602001848152602001600015158152509050600160008781526020019081526020016000208190806001815401808255809150506001900390600052602060002090600602016000909190919091506000820151816000015560208201518160010160006101000a81548160ff0219169083600881111561084e5761084d6112dd565b5b021790555060408201518160010160016101000a81548173ffffffffffffffffffffffffffffffffffffffff021916908373ffffffffffffffffffffffffffffffffffffffff1602179055506060820151816002015560808201518160030190816108b99190611e10565b5060a08201518160040190816108cf9190611e10565b5060c08201518160050160006101000a81548160ff021916908315150217905550505060026000878152602001908152602001600020600081548092919061091690611f11565b91905055503373ffffffffffffffffffffffffffffffffffffffff16867ffba4d5f40e4ff3e3b6370a072ad6b2eaee17d85bc12d69b6f20b0a8225a7b40f8742604051610964929190611f59565b60405180910390a3505050505050565b606060016000838152602001908152602001600020805480602002602001604051908101604052809291908181526020016000905b82821015610bbf57838290600052602060002090600602016040518060e0016040529081600082015481526020016001820160009054906101000a900460ff1660088111156109fb576109fa6112dd565b5b6008811115610a0d57610a0c6112dd565b5b81526020016001820160019054906101000a900473ffffffffffffffffffffffffffffffffffffffff1673ffffffffffffffffffffffffffffffffffffffff1673ffffffffffffffffffffffffffffffffffffffff16815260200160028201548152602001600382018054610a8190611b98565b80601f0160208091040260200160405190810160405280929190818152602001828054610aad90611b98565b8015610afa5780601f10610acf57610100808354040283529160200191610afa565b820191906000526020600020905b815481529060010190602001808311610add57829003601f168201915b50505050508152602001600482018054610b1390611b98565b80601f0160208091040260200160405190810160405280929190818152602001828054610b3f90611b98565b8015610b8c5780601f10610b6157610100808354040283529160200191610b8c565b820191906000526020600020905b815481529060010190602001808311610b6f57829003601f168201915b505050505081526020016005820160009054906101000a900460ff161515151581525050815260200190600101906109a9565b505050509050919050565b600080600084815260200190815260200160002060000160008373ffffffffffffffffffffffffffffffffffffffff1673ffffffffffffffffffffffffffffffffffffffff16815260200190815260200160002060009054906101000a900460ff16905092915050565b6000801b81565b7ff996da754c790e95d5c7ca3330cfcad529487fe9d1d8edb7afc65076fdf9adb481565b60026020528060005260406000206000915090505481565b610c8082610694565b610c8981610f8d565b610c93838361109a565b50505050565b610ca16111dd565b60016000848152602001908152602001600020805490508210610cf9576040517f08c379a0000000000000000000000000000000000000000000000000000000008152600401610cf090611c15565b60405180910390fd5b600160008481526020019081526020016000208281548110610d1e57610d1d611c35565b5b90600052602060002090600602016040518060e0016040529081600082015481526020016001820160009054906101000a900460ff166008811115610d6657610d656112dd565b5b6008811115610d7857610d776112dd565b5b81526020016001820160019054906101000a900473ffffffffffffffffffffffffffffffffffffffff1673ffffffffffffffffffffffffffffffffffffffff1673ffffffffffffffffffffffffffffffffffffffff16815260200160028201548152602001600382018054610dec90611b98565b80601f0160208091040260200160405190810160405280929190818152602001828054610e1890611b98565b8015610e655780601f10610e3a57610100808354040283529160200191610e65565b820191906000526020600020905b815481529060010190602001808311610e4857829003601f168201915b50505050508152602001600482018054610e7e90611b98565b80601f0160208091040260200160405190810160405280929190818152602001828054610eaa90611b98565b8015610ef75780601f10610ecc57610100808354040283529160200191610ef7565b820191906000526020600020905b815481529060010190602001808311610eda57829003601f168201915b505050505081526020016005820160009054906101000a900460ff161515151581525050905092915050565b60007f01ffc9a7000000000000000000000000000000000000000000000000000000007bffffffffffffffffffffffffffffffffffffffffffffffffffffffff1916827bffffffffffffffffffffffffffffffffffffffffffffffffffffffff1916149050919050565b610f9e81610f99611092565b61118c565b50565b6000610fad8383610bca565b61108757600160008085815260200190815260200160002060000160008473ffffffffffffffffffffffffffffffffffffffff1673ffffffffffffffffffffffffffffffffffffffff16815260200190815260200160002060006101000a81548160ff021916908315150217905550611024611092565b73ffffffffffffffffffffffffffffffffffffffff168273ffffffffffffffffffffffffffffffffffffffff16847f2f8788117e7eff1d82e926ec794901d17c78024a50270940304540a733656f0d60405160405180910390a46001905061108c565b600090505b92915050565b600033905090565b60006110a68383610bca565b1561118157600080600085815260200190815260200160002060000160008473ffffffffffffffffffffffffffffffffffffffff1673ffffffffffffffffffffffffffffffffffffffff16815260200190815260200160002060006101000a81548160ff02191690831515021790555061111e611092565b73ffffffffffffffffffffffffffffffffffffffff168273ffffffffffffffffffffffffffffffffffffffff16847ff6391f5c32d9c69d2a47ea670b442974b53935d1edc7fd64eb21e047a839171b60405160405180910390a460019050611186565b600090505b92915050565b6111968282610bca565b6111d95780826040517fe2517d3f0000000000000000000000000000000000000000000000000000000081526004016111d0929190611f82565b60405180910390fd5b5050565b6040518060e001604052806000815260200160006008811115611203576112026112dd565b5b8152602001600073ffffffffffffffffffffffffffffffffffffffff1681526020016000815260200160608152602001606081526020016000151581525090565b6000604051905090565b600080fd5b600080fd5b6000819050919050565b61126b81611258565b811461127657600080fd5b50565b60008135905061128881611262565b92915050565b600080604083850312156112a5576112a461124e565b5b60006112b385828601611279565b92505060206112c485828601611279565b9150509250929050565b6112d781611258565b82525050565b7f4e487b7100000000000000000000000000000000000000000000000000000000600052602160045260246000fd5b6009811061131d5761131c6112dd565b5b50565b600081905061132e8261130c565b919050565b600061133e82611320565b9050919050565b61134e81611333565b82525050565b600073ffffffffffffffffffffffffffffffffffffffff82169050919050565b600061137f82611354565b9050919050565b61138f81611374565b82525050565b600081519050919050565b600082825260208201905092915050565b60005b838110156113cf5780820151818401526020810190506113b4565b60008484015250505050565b6000601f19601f8301169050919050565b60006113f782611395565b61140181856113a0565b93506114118185602086016113b1565b61141a816113db565b840191505092915050565b60008115159050919050565b61143a81611425565b82525050565b600060e082019050611455600083018a6112ce565b6114626020830189611345565b61146f6040830188611386565b61147c60608301876112ce565b818103608083015261148e81866113ec565b905081810360a08301526114a281856113ec565b90506114b160c0830184611431565b98975050505050505050565b60007fffffffff0000000000000000000000000000000000000000000000000000000082169050919050565b6114f2816114bd565b81146114fd57600080fd5b50565b60008135905061150f816114e9565b92915050565b60006020828403121561152b5761152a61124e565b5b600061153984828501611500565b91505092915050565b60006020820190506115576000830184611431565b92915050565b6000602082840312156115735761157261124e565b5b600061158184828501611279565b91505092915050565b600060208201905061159f60008301846112ce565b92915050565b6000819050919050565b6115b8816115a5565b81146115c357600080fd5b50565b6000813590506115d5816115af565b92915050565b6000602082840312156115f1576115f061124e565b5b60006115ff848285016115c6565b91505092915050565b611611816115a5565b82525050565b600060208201905061162c6000830184611608565b92915050565b61163b81611374565b811461164657600080fd5b50565b60008135905061165881611632565b92915050565b600080604083850312156116755761167461124e565b5b6000611683858286016115c6565b925050602061169485828601611649565b9150509250929050565b600981106116ab57600080fd5b50565b6000813590506116bd8161169e565b92915050565b600080fd5b600080fd5b7f4e487b7100000000000000000000000000000000000000000000000000000000600052604160045260246000fd5b611705826113db565b810181811067ffffffffffffffff82111715611724576117236116cd565b5b80604052505050565b6000611737611244565b905061174382826116fc565b919050565b600067ffffffffffffffff821115611763576117626116cd565b5b61176c826113db565b9050602081019050919050565b82818337600083830152505050565b600061179b61179684611748565b61172d565b9050828152602081018484840111156117b7576117b66116c8565b5b6117c2848285611779565b509392505050565b600082601f8301126117df576117de6116c3565b5b81356117ef848260208601611788565b91505092915050565b600080600080608085870312156118125761181161124e565b5b600061182087828801611279565b9450506020611831878288016116ae565b935050604085013567ffffffffffffffff81111561185257611851611253565b5b61185e878288016117ca565b925050606085013567ffffffffffffffff81111561187f5761187e611253565b5b61188b878288016117ca565b91505092959194509250565b600081519050919050565b600082825260208201905092915050565b6000819050602082019050919050565b6118cc81611258565b82525050565b6118db81611333565b82525050565b6118ea81611374565b82525050565b600082825260208201905092915050565b600061190c82611395565b61191681856118f0565b93506119268185602086016113b1565b61192f816113db565b840191505092915050565b61194381611425565b82525050565b600060e08301600083015161196160008601826118c3565b50602083015161197460208601826118d2565b50604083015161198760408601826118e1565b50606083015161199a60608601826118c3565b50608083015184820360808601526119b28282611901565b91505060a083015184820360a08601526119cc8282611901565b91505060c08301516119e160c086018261193a565b508091505092915050565b60006119f88383611949565b905092915050565b6000602082019050919050565b6000611a1882611897565b611a2281856118a2565b935083602082028501611a34856118b3565b8060005b85811015611a705784840389528151611a5185826119ec565b9450611a5c83611a00565b925060208a01995050600181019050611a38565b50829750879550505050505092915050565b60006020820190508181036000830152611a9c8184611a0d565b905092915050565b600060e083016000830151611abc60008601826118c3565b506020830151611acf60208601826118d2565b506040830151611ae260408601826118e1565b506060830151611af560608601826118c3565b5060808301518482036080860152611b0d8282611901565b91505060a083015184820360a0860152611b278282611901565b91505060c0830151611b3c60c086018261193a565b508091505092915050565b60006020820190508181036000830152611b618184611aa4565b905092915050565b7f4e487b7100000000000000000000000000000000000000000000000000000000600052602260045260246000fd5b60006002820490506001821680611bb057607f821691505b602082108103611bc357611bc2611b69565b5b50919050565b7f4576656e74206e6f7420666f756e640000000000000000000000000000000000600082015250565b6000611bff600f836113a0565b9150611c0a82611bc9565b602082019050919050565b60006020820190508181036000830152611c2e81611bf2565b9050919050565b7f4e487b7100000000000000000000000000000000000000000000000000000000600052603260045260246000fd5b60008190508160005260206000209050919050565b60006020601f8301049050919050565b600082821b905092915050565b600060088302611cc67fffffffffffffffffffffffffffffffffffffffffffffffffffffffffffffffff82611c89565b611cd08683611c89565b95508019841693508086168417925050509392505050565b6000819050919050565b6000611d0d611d08611d0384611258565b611ce8565b611258565b9050919050565b6000819050919050565b611d2783611cf2565b611d3b611d3382611d14565b848454611c96565b825550505050565b600090565b611d50611d43565b611d5b818484611d1e565b505050565b5b81811015611d7f57611d74600082611d48565b600181019050611d61565b5050565b601f821115611dc457611d9581611c64565b611d9e84611c79565b81016020851015611dad578190505b611dc1611db985611c79565b830182611d60565b50505b505050565b600082821c905092915050565b6000611de760001984600802611dc9565b1980831691505092915050565b6000611e008383611dd6565b9150826002028217905092915050565b611e1982611395565b67ffffffffffffffff811115611e3257611e316116cd565b5b611e3c8254611b98565b611e47828285611d83565b600060209050601f831160018114611e7a5760008415611e68578287015190505b611e728582611df4565b865550611eda565b601f198416611e8886611c64565b60005b82811015611eb057848901518255600182019150602085019450602081019050611e8b565b86831015611ecd5784890151611ec9601f891682611dd6565b8355505b6001600288020188555050505b505050505050565b7f4e487b7100000000000000000000000000000000000000000000000000000000600052601160045260246000fd5b6000611f1c82611258565b91507fffffffffffffffffffffffffffffffffffffffffffffffffffffffffffffffff8203611f4e57611f4d611ee2565b5b600182019050919050565b6000604082019050611f6e6000830185611345565b611f7b60208301846112ce565b9392505050565b6000604082019050611f976000830185611386565b611fa46020830184611608565b939250505056fea26469706673582212206697bb42df7505df65b267fda3a79ca7abddce642470c2093fa3d734043c1c3864736f6c63430008140033",
  "linkReferences": {},
  "deployedLinkReferences": {}
}