{
  "_format": "hh-sol-artifact-1",
  "contractName": "CarRegistry",
  "sourceName": "contracts/CarRegistry.sol",
  "abi": [
    {
      "inputs": [],
      "stateMutability": "nonpayable",
      "type": "constructor"
    },
    {
      "inputs": [],
      "name": "AccessControlBadConfirmation",
      "type": "error"
    },
    {
      "inputs": [
        {
          "internalType": "address",
          "name": "account",
          "type": "address"
        },
        {
          "internalType": "bytes32",
          "name": "neededRole",
          "type": "bytes32"
        }
      ],
      "name": "AccessControlUnauthorizedAccount",
      "type": "error"
    },
    {
      "anonymous": false,
      "inputs": [
        {
          "indexed": true,
          "internalType": "uint256",
          "name": "carId",
          "type": "uint256"
        }
      ],
      "name": "CarDeactivated",
      "type": "event"
    },
    {
      "anonymous": false,
      "inputs": [
        {
          "indexed": true,
          "internalType": "uint256",
          "name": "carId",
          "type": "uint256"
        },
        {
          "indexed": false,
          "internalType": "string",
          "name": "vin",
          "type": "string"
        },
        {
          "indexed": true,
          "internalType": "address",
          "name": "manufacturer",
          "type": "address"
        }
      ],
      "name": "CarRegistered",
      "type": "event"
    },
    {
      "anonymous": false,
      "inputs": [
        {
          "indexed": true,
          "internalType": "uint256",
          "name": "carId",
          "type": "uint256"
        },
        {
          "indexed": true,
          "internalType": "address",
          "name": "from",
          "type": "address"
        },
        {
          "indexed": true,
          "internalType": "address",
          "name": "to",
          "type": "address"
        },
        {
          "indexed": false,
          "internalType": "string",
          "name": "transferType",
          "type": "string"
        }
      ],
      "name": "OwnershipTransferred",
      "type": "event"
    },
    {
      "anonymous": false,
      "inputs": [
        {
          "indexed": true,
          "internalType": "bytes32",
          "name": "role",
          "type": "bytes32"
        },
        {
          "indexed": true,
          "internalType": "bytes32",
          "name": "previousAdminRole",
          "type": "bytes32"
        },
        {
          "indexed": true,
          "internalType": "bytes32",
          "name": "newAdminRole",
          "type": "bytes32"
        }
      ],
      "name": "RoleAdminChanged",
      "type": "event"
    },
    {
      "anonymous": false,
      "inputs": [
        {
          "indexed": true,
          "internalType": "bytes32",
          "name": "role",
          "type": "bytes32"
        },
        {
          "indexed": true,
          "internalType": "address",
          "name": "account",
          "type": "address"
        },
        {
          "indexed": true,
          "internalType": "address",
          "name": "sender",
          "type": "address"
        }
      ],
      "name": "RoleGranted",
      "type": "event"
    },
    {
      "anonymous": false,
      "inputs": [
        {
          "indexed": true,
          "internalType": "bytes32",
          "name": "role",
          "type": "bytes32"
        },
        {
          "indexed": true,
          "internalType": "address",
          "name": "account",
          "type": "address"
        },
        {
          "indexed": true,
          "internalType": "address",
          "name": "sender",
          "type": "address"
        }
      ],
      "name": "RoleRevoked",
      "type": "event"
    },
    {
      "inputs": [],
      "name": "DEALER_ROLE",
      "outputs": [
        {
          "internalType": "bytes32",
          "name": "",
          "type": "bytes32"
        }
      ],
      "stateMutability": "view",
      "type": "function"
    },
    {
      "inputs": [],
      "name": "DEFAULT_ADMIN_ROLE",
      "outputs": [
        {
          "internalType": "bytes32",
          "name": "",
          "type": "bytes32"
        }
      ],
      "stateMutability": "view",
      "type": "function"
    },
    {
      "inputs": [],
      "name": "INSURANCE_ROLE",
      "outputs": [
        {
          "internalType": "bytes32",
          "name": "",
          "type": "bytes32"
        }
      ],
      "stateMutability": "view",
      "type": "function"
    },
    {
      "inputs": [],
      "name": "MANUFACTURER_ROLE",
      "outputs": [
        {
          "internalType": "bytes32",
          "name": "",
          "type": "bytes32"
        }
      ],
      "stateMutability": "view",
      "type": "function"
    },
    {
      "inputs": [],
      "name": "RTO_ROLE",
      "outputs": [
        {
          "internalType": "bytes32",
          "name": "",
          "type": "bytes32"
        }
      ],
      "stateMutability": "view",
      "type": "function"
    },
    {
      "inputs": [],
      "name": "SERVICE_PROVIDER_ROLE",
      "outputs": [
        {
          "internalType": "bytes32",
          "name": "",
          "type": "bytes32"
        }
      ],
      "stateMutability": "view",
      "type": "function"
    },
    {
      "inputs": [
        {
          "internalType": "uint256",
          "name": "",
          "type": "uint256"
        }
      ],
      "name": "cars",
      "outputs": [
        {
          "internalType": "uint256",
          "name": "carId",
          "type": "uint256"
        },
        {
          "internalType": "string",
          "name": "vin",
          "type": "string"
        },
        {
          "internalType": "string",
          "name": "make",
          "type": "string"
        },
        {
          "internalType": "string",
          "name": "model",
          "type": "string"
        },
        {
          "internalType": "uint16",
          "name": "year",
          "type": "uint16"
        },
        {
          "internalType": "address",
          "name": "manufacturer",
          "type": "address"
        },
        {
          "internalType": "address",
          "name": "currentOwner",
          "type": "address"
        },
        {
          "internalType": "uint256",
          "name": "registrationDate",
          "type": "uint256"
        },
        {
          "internalType": "bool",
          "name": "isActive",
          "type": "bool"
        }
      ],
      "stateMutability": "view",
      "type": "function"
    },
    {
      "inputs": [
        {
          "internalType": "uint256",
          "name": "_carId",
          "type": "uint256"
        }
      ],
      "name": "getCar",
      "outputs": [
        {
          "components": [
            {
              "internalType": "uint256",
              "name": "carId",
              "type": "uint256"
            },
            {
              "internalType": "string",
              "name": "vin",
              "type": "string"
            },
            {
              "internalType": "string",
              "name": "make",
              "type": "string"
            },
            {
              "internalType": "string",
              "name": "model",
              "type": "string"
            },
            {
              "internalType": "uint16",
              "name": "year",
              "type": "uint16"
            },
            {
              "internalType": "address",
              "name": "manufacturer",
              "type": "address"
            },
            {
              "internalType": "address",
              "name": "currentOwner",
              "type": "address"
            },
            {
              "internalType": "uint256",
              "name": "registrationDate",
              "type": "uint256"
            },
            {
              "internalType": "bool",
              "name": "isActive",
              "type": "bool"
            }
          ],
          "internalType": "struct CarRegistry.Car",
          "name": "",
          "type": "tuple"
        }
      ],
      "stateMutability": "view",
      "type": "function"
    },
    {
      "inputs": [
        {
          "internalType": "string",
          "name": "_vin",
          "type": "string"
        }
      ],
      "name": "getCarByVin",
      "outputs": [
        {
          "internalType": "uint256",
          "name": "",
          "type": "uint256"
        }
      ],
      "stateMutability": "view",
      "type": "function"
    },
    {
      "inputs": [
        {
          "internalType": "uint256",
          "name": "_carId",
          "type": "uint256"
        }
      ],
      "name": "getOwnershipHistory",
      "outputs": [
        {
          "components": [
            {
              "internalType": "address",
              "name": "owner",
              "type": "address"
            },
            {
              "internalType": "uint256",
              "name": "transferDate",
              "type": "uint256"
            },
            {
              "internalType": "string",
              "name": "transferType",
              "type": "string"
            }
          ],
          "internalType": "struct CarRegistry.OwnershipRecord[]",
          "name": "",
          "type": "tuple[]"
        }
      ],
      "stateMutability": "view",
      "type": "function"
    },
    {
      "inputs": [
        {
          "internalType": "bytes32",
          "name": "role",
          "type": "bytes32"
        }
      ],
      "name": "getRoleAdmin",
      "outputs": [
        {
          "internalType": "bytes32",
          "name": "",
          "type": "bytes32"
        }
      ],
      "stateMutability": "view",
      "type": "function"
    },
    {
      "inputs": [
        {
          "internalType": "address",
          "name": "_user",
          "type": "address"
        }
      ],
      "name": "getUserCars",
      "outputs": [
        {
          "internalType": "uint256[]",
          "name": "",
          "type": "uint256[]"
        }
      ],
      "stateMutability": "view",
      "type": "function"
    },
    {
      "inputs": [
        {
          "internalType": "bytes32",
          "name": "role",
          "type": "bytes32"
        },
        {
          "internalType": "address",
          "name": "account",
          "type": "address"
        }
      ],
      "name": "grantRole",
      "outputs": [],
      "stateMutability": "nonpayable",
      "type": "function"
    },
    {
      "inputs": [
        {
          "internalType": "bytes32",
          "name": "role",
          "type": "bytes32"
        },
        {
          "internalType": "address",
          "name": "account",
          "type": "address"
        }
      ],
      "name": "hasRole",
      "outputs": [
        {
          "internalType": "bool",
          "name": "",
          "type": "bool"
        }
      ],
      "stateMutability": "view",
      "type": "function"
    },
    {
      "inputs": [
        {
          "internalType": "uint256",
          "name": "",
          "type": "uint256"
        },
        {
          "internalType": "uint256",
          "name": "",
          "type": "uint256"
        }
      ],
      "name": "ownershipHistory",
      "outputs": [
        {
          "internalType": "address",
          "name": "owner",
          "type": "address"
        },
        {
          "internalType": "uint256",
          "name": "transferDate",
          "type": "uint256"
        },
        {
          "internalType": "string",
          "name": "transferType",
          "type": "string"
        }
      ],
      "stateMutability": "view",
      "type": "function"
    },
    {
      "inputs": [
        {
          "internalType": "string",
          "name": "_vin",
          "type": "string"
        },
        {
          "internalType": "string",
          "name": "_make",
          "type": "string"
        },
        {
          "internalType": "string",
          "name": "_model",
          "type": "string"
        },
        {
          "internalType": "uint16",
          "name": "_year",
          "type": "uint16"
        }
      ],
      "name": "registerCar",
      "outputs": [
        {
          "internalType": "uint256",
          "name": "",
          "type": "uint256"
        }
      ],
      "stateMutability": "nonpayable",
      "type": "function"
    },
    {
      "inputs": [
        {
          "internalType": "bytes32",
          "name": "role",
          "type": "bytes32"
        },
        {
          "internalType": "address",
          "name": "callerConfirmation",
          "type": "address"
        }
      ],
      "name": "renounceRole",
      "outputs": [],
      "stateMutability": "nonpayable",
      "type": "function"
    },
    {
      "inputs": [
        {
          "internalType": "bytes32",
          "name": "role",
          "type": "bytes32"
        },
        {
          "internalType": "address",
          "name": "account",
          "type": "address"
        }
      ],
      "name": "revokeRole",
      "outputs": [],
      "stateMutability": "nonpayable",
      "type": "function"
    },
    {
      "inputs": [
        {
          "internalType": "bytes4",
          "name": "interfaceId",
          "type": "bytes4"
        }
      ],
      "name": "supportsInterface",
      "outputs": [
        {
          "internalType": "bool",
          "name": "",
          "type": "bool"
        }
      ],
      "stateMutability": "view",
      "type": "function"
    },
    {
      "inputs": [
        {
          "internalType": "uint256",
          "name": "_carId",
          "type": "uint256"
        },
        {
          "internalType": "address",
          "name": "_newOwner",
          "type": "address"
        },
        {
          "internalType": "string",
          "name": "_transferType",
          "type": "string"
        }
      ],
      "name": "transferOwnership",
      "outputs": [],
      "stateMutability": "nonpayable",
      "type": "function"
    },
    {
      "inputs": [
        {
          "internalType": "address",
          "name": "",
          "type": "address"
        },
        {
          "internalType": "uint256",
          "name": "",
          "type": "uint256"
        }
      ],
      "name": "userCars",
      "outputs": [
        {
          "internalType": "uint256",
          "name": "",
          "type": "uint256"
        }
      ],
      "stateMutability": "view",
      "type": "function"
    },
    {
      "inputs": [
        {
          "internalType": "string",
          "name": "",
          "type": "string"
        }
      ],
      "name": "vinToCar",
      "outputs": [
        {
          "internalType": "uint256",
          "name": "",
          "type": "uint256"
        }
      ],
      "stateMutability": "view",
      "type": "function"
    }
  ],
  "bytecode": "0x60806040523480156200001157600080fd5b50620000276000801b336200002e60201b60201c565b50620001a3565b60006200004283836200013160201b60201c565b6200012657600160008085815260200190815260200160002060000160008473ffffffffffffffffffffffffffffffffffffffff1673ffffffffffffffffffffffffffffffffffffffff16815260200190815260200160002060006101000a81548160ff021916908315150217905550620000c26200019b60201b60201c565b73ffffffffffffffffffffffffffffffffffffffff168273ffffffffffffffffffffffffffffffffffffffff16847f2f8788117e7eff1d82e926ec794901d17c78024a50270940304540a733656f0d60405160405180910390a4600190506200012b565b600090505b92915050565b600080600084815260200190815260200160002060000160008373ffffffffffffffffffffffffffffffffffffffff1673ffffffffffffffffffffffffffffffffffffffff16815260200190815260200160002060009054906101000a900460ff16905092915050565b600033905090565b612caf80620001b36000396000f3fe608060405234801561001057600080fd5b50600436106101425760003560e01c8063965288b0116100b8578063c9cf2adc1161007c578063c9cf2adc1461039f578063cf775755146103d1578063d547741f14610401578063f1dbaccb1461041d578063f37664141461044d578063f7746e361461047d57610142565b8063965288b0146102f75780639fa017f414610315578063a217fddf14610345578063a9168d9414610363578063b752a74b1461038157610142565b806334d6ff4c1161010a57806334d6ff4c1461021157806336568abe1461022f5780635e8be1901461024b578063716256411461027b578063743b7a071461029757806391d14854146102c757610142565b806301ffc9a7146101475780631bc6ae8a14610177578063248a9ca3146101955780632698286c146101c55780632f2ff15d146101f5575b600080fd5b610161600480360381019061015c9190611bc6565b6104b5565b60405161016e9190611c0e565b60405180910390f35b61017f61052f565b60405161018c9190611c42565b60405180910390f35b6101af60048036038101906101aa9190611c89565b610553565b6040516101bc9190611c42565b60405180910390f35b6101df60048036038101906101da9190611d14565b610572565b6040516101ec9190611e09565b60405180910390f35b61020f600480360381019061020a9190611e2b565b610609565b005b61021961062b565b6040516102269190611c42565b60405180910390f35b61024960048036038101906102449190611e2b565b61064f565b005b61026560048036038101906102609190611e97565b6106ca565b6040516102729190612062565b60405180910390f35b610295600480360381019061029091906121b9565b610a0c565b005b6102b160048036038101906102ac9190612254565b610dba565b6040516102be919061231e565b60405180910390f35b6102e160048036038101906102dc9190611e2b565b611208565b6040516102ee9190611c0e565b60405180910390f35b6102ff611272565b60405161030c9190611c42565b60405180910390f35b61032f600480360381019061032a9190612339565b611296565b60405161033c919061231e565b60405180910390f35b61034d6112c7565b60405161035a9190611c42565b60405180910390f35b61036b6112ce565b6040516103789190611c42565b60405180910390f35b6103896112f2565b6040516103969190611c42565b60405180910390f35b6103b960048036038101906103b49190612379565b611316565b6040516103c893929190612412565b60405180910390f35b6103eb60048036038101906103e69190612450565b611405565b6040516103f8919061231e565b60405180910390f35b61041b60048036038101906104169190611e2b565b611433565b005b61043760048036038101906104329190611e97565b611455565b60405161044491906125ab565b60405180910390f35b61046760048036038101906104629190612450565b6115b9565b604051610474919061231e565b60405180910390f35b61049760048036038101906104929190611e97565b6115e1565b6040516104ac999897969594939291906125dc565b60405180910390f35b60007f7965db0b000000000000000000000000000000000000000000000000000000007bffffffffffffffffffffffffffffffffffffffffffffffffffffffff1916827bffffffffffffffffffffffffffffffffffffffffffffffffffffffff19161480610528575061052782611822565b5b9050919050565b7fd8c0b0264fb5d225f4ba2fb92454d9f4f912be4d27b355562e6ae90ce2f5e74b81565b6000806000838152602001908152602001600020600101549050919050565b6060600560008373ffffffffffffffffffffffffffffffffffffffff1673ffffffffffffffffffffffffffffffffffffffff1681526020019081526020016000208054806020026020016040519081016040528092919081815260200182805480156105fd57602002820191906000526020600020905b8154815260200190600101908083116105e9575b50505050509050919050565b61061282610553565b61061b8161188c565b61062583836118a0565b50505050565b7fcf75f067314df4d0527f2a9e12148d8bd7c8a3f7235b2171d24fa195d2c3ecb981565b610657611991565b73ffffffffffffffffffffffffffffffffffffffff168173ffffffffffffffffffffffffffffffffffffffff16146106bb576040517f6697b23200000000000000000000000000000000000000000000000000000000815260040160405180910390fd5b6106c58282611999565b505050565b6106d2611adc565b6002600083815260200190815260200160002060070160009054906101000a900460ff16610735576040517f08c379a000000000000000000000000000000000000000000000000000000000815260040161072c906126ca565b60405180910390fd5b60026000838152602001908152602001600020604051806101200160405290816000820154815260200160018201805461076e90612719565b80601f016020809104026020016040519081016040528092919081815260200182805461079a90612719565b80156107e75780601f106107bc576101008083540402835291602001916107e7565b820191906000526020600020905b8154815290600101906020018083116107ca57829003601f168201915b5050505050815260200160028201805461080090612719565b80601f016020809104026020016040519081016040528092919081815260200182805461082c90612719565b80156108795780601f1061084e57610100808354040283529160200191610879565b820191906000526020600020905b81548152906001019060200180831161085c57829003601f168201915b5050505050815260200160038201805461089290612719565b80601f01602080910402602001604051908101604052809291908181526020018280546108be90612719565b801561090b5780601f106108e05761010080835404028352916020019161090b565b820191906000526020600020905b8154815290600101906020018083116108ee57829003601f168201915b505050505081526020016004820160009054906101000a900461ffff1661ffff1661ffff1681526020016004820160029054906101000a900473ffffffffffffffffffffffffffffffffffffffff1673ffffffffffffffffffffffffffffffffffffffff1673ffffffffffffffffffffffffffffffffffffffff1681526020016005820160009054906101000a900473ffffffffffffffffffffffffffffffffffffffff1673ffffffffffffffffffffffffffffffffffffffff1673ffffffffffffffffffffffffffffffffffffffff168152602001600682015481526020016007820160009054906101000a900460ff1615151515815250509050919050565b6002600084815260200190815260200160002060070160009054906101000a900460ff16610a6f576040517f08c379a0000000000000000000000000000000000000000000000000000000008152600401610a6690612796565b60405180910390fd5b3373ffffffffffffffffffffffffffffffffffffffff166002600085815260200190815260200160002060050160009054906101000a900473ffffffffffffffffffffffffffffffffffffffff1673ffffffffffffffffffffffffffffffffffffffff1614610b13576040517f08c379a0000000000000000000000000000000000000000000000000000000008152600401610b0a90612802565b60405180910390fd5b600073ffffffffffffffffffffffffffffffffffffffff168273ffffffffffffffffffffffffffffffffffffffff1603610b82576040517f08c379a0000000000000000000000000000000000000000000000000000000008152600401610b799061286e565b60405180910390fd5b60006002600085815260200190815260200160002060050160009054906101000a900473ffffffffffffffffffffffffffffffffffffffff169050826002600086815260200190815260200160002060050160006101000a81548173ffffffffffffffffffffffffffffffffffffffff021916908373ffffffffffffffffffffffffffffffffffffffff160217905550600560008473ffffffffffffffffffffffffffffffffffffffff1673ffffffffffffffffffffffffffffffffffffffff1681526020019081526020016000208490806001815401808255809150506001900390600052602060002001600090919091909150556004600085815260200190815260200160002060405180606001604052808573ffffffffffffffffffffffffffffffffffffffff16815260200142815260200184815250908060018154018082558091505060019003906000526020600020906003020160009091909190915060008201518160000160006101000a81548173ffffffffffffffffffffffffffffffffffffffff021916908373ffffffffffffffffffffffffffffffffffffffff160217905550602082015181600101556040820151816002019081610d4b9190612a3a565b5050508273ffffffffffffffffffffffffffffffffffffffff168173ffffffffffffffffffffffffffffffffffffffff16857fc6f76974206718b625c9faba8b5ae1931f1e7a6620c23458a74554aeffef136085604051610dac9190612b0c565b60405180910390a450505050565b60007feefb95e842a3287179d933b4460be539a1d5af11aa8b325bb45c5c8dc92de4ed610de68161188c565b6000600387604051610df89190612b6a565b90815260200160405180910390205414610e47576040517f08c379a0000000000000000000000000000000000000000000000000000000008152600401610e3e90612bcd565b60405180910390fd5b6001806000828254610e599190612c1c565b92505081905550600060015490506040518061012001604052808281526020018881526020018781526020018681526020018561ffff1681526020013373ffffffffffffffffffffffffffffffffffffffff1681526020013373ffffffffffffffffffffffffffffffffffffffff1681526020014281526020016001151581525060026000838152602001908152602001600020600082015181600001556020820151816001019081610f0c9190612a3a565b506040820151816002019081610f229190612a3a565b506060820151816003019081610f389190612a3a565b5060808201518160040160006101000a81548161ffff021916908361ffff16021790555060a08201518160040160026101000a81548173ffffffffffffffffffffffffffffffffffffffff021916908373ffffffffffffffffffffffffffffffffffffffff16021790555060c08201518160050160006101000a81548173ffffffffffffffffffffffffffffffffffffffff021916908373ffffffffffffffffffffffffffffffffffffffff16021790555060e082015181600601556101008201518160070160006101000a81548160ff021916908315150217905550905050806003886040516110299190612b6a565b908152602001604051809103902081905550600560003373ffffffffffffffffffffffffffffffffffffffff1673ffffffffffffffffffffffffffffffffffffffff1681526020019081526020016000208190806001815401808255809150506001900390600052602060002001600090919091909150556004600082815260200190815260200160002060405180606001604052803373ffffffffffffffffffffffffffffffffffffffff1681526020014281526020016040518060400160405280600b81526020017f6d616e7566616374757265000000000000000000000000000000000000000000815250815250908060018154018082558091505060019003906000526020600020906003020160009091909190915060008201518160000160006101000a81548173ffffffffffffffffffffffffffffffffffffffff021916908373ffffffffffffffffffffffffffffffffffffffff1602179055506020820151816001015560408201518160020190816111a99190612a3a565b5050503373ffffffffffffffffffffffffffffffffffffffff16817f5420a1ccc7b253f8a4bbdc9591d9edbd00c606b1d8962fa3292e65f6272a4d09896040516111f39190612b0c565b60405180910390a38092505050949350505050565b600080600084815260200190815260200160002060000160008373ffffffffffffffffffffffffffffffffffffffff1673ffffffffffffffffffffffffffffffffffffffff16815260200190815260200160002060009054906101000a900460ff16905092915050565b7feefb95e842a3287179d933b4460be539a1d5af11aa8b325bb45c5c8dc92de4ed81565b600560205281600052604060002081815481106112b257600080fd5b90600052602060002001600091509150505481565b6000801b81565b7f7e768edf29c11792696410a8eca3661e6037a94fce82c078c68726bebc0bc29081565b7ffec7cd74e5c65b641d49ecc2e89f646c7c0bcae85dc50f9616bf9c798cedda8b81565b6004602052816000526040600020818154811061133257600080fd5b9060005260206000209060030201600091509150508060000160009054906101000a900473ffffffffffffffffffffffffffffffffffffffff169080600101549080600201805461138290612719565b80601f01602080910402602001604051908101604052809291908181526020018280546113ae90612719565b80156113fb5780601f106113d0576101008083540402835291602001916113fb565b820191906000526020600020905b8154815290600101906020018083116113de57829003601f168201915b5050505050905083565b6003818051602081018201805184825260208301602085012081835280955050505050506000915090505481565b61143c82610553565b6114458161188c565b61144f8383611999565b50505050565b606060046000838152602001908152602001600020805480602002602001604051908101604052809291908181526020016000905b828210156115ae57838290600052602060002090600302016040518060600160405290816000820160009054906101000a900473ffffffffffffffffffffffffffffffffffffffff1673ffffffffffffffffffffffffffffffffffffffff1673ffffffffffffffffffffffffffffffffffffffff1681526020016001820154815260200160028201805461151d90612719565b80601f016020809104026020016040519081016040528092919081815260200182805461154990612719565b80156115965780601f1061156b57610100808354040283529160200191611596565b820191906000526020600020905b81548152906001019060200180831161157957829003601f168201915b5050505050815250508152602001906001019061148a565b505050509050919050565b60006003826040516115cb9190612b6a565b9081526020016040518091039020549050919050565b600260205280600052604060002060009150905080600001549080600101805461160a90612719565b80601f016020809104026020016040519081016040528092919081815260200182805461163690612719565b80156116835780601f1061165857610100808354040283529160200191611683565b820191906000526020600020905b81548152906001019060200180831161166657829003601f168201915b50505050509080600201805461169890612719565b80601f01602080910402602001604051908101604052809291908181526020018280546116c490612719565b80156117115780601f106116e657610100808354040283529160200191611711565b820191906000526020600020905b8154815290600101906020018083116116f457829003601f168201915b50505050509080600301805461172690612719565b80601f016020809104026020016040519081016040528092919081815260200182805461175290612719565b801561179f5780601f106117745761010080835404028352916020019161179f565b820191906000526020600020905b81548152906001019060200180831161178257829003601f168201915b5050505050908060040160009054906101000a900461ffff16908060040160029054906101000a900473ffffffffffffffffffffffffffffffffffffffff16908060050160009054906101000a900473ffffffffffffffffffffffffffffffffffffffff16908060060154908060070160009054906101000a900460ff16905089565b60007f01ffc9a7000000000000000000000000000000000000000000000000000000007bffffffffffffffffffffffffffffffffffffffffffffffffffffffff1916827bffffffffffffffffffffffffffffffffffffffffffffffffffffffff1916149050919050565b61189d81611898611991565b611a8b565b50565b60006118ac8383611208565b61198657600160008085815260200190815260200160002060000160008473ffffffffffffffffffffffffffffffffffffffff1673ffffffffffffffffffffffffffffffffffffffff16815260200190815260200160002060006101000a81548160ff021916908315150217905550611923611991565b73ffffffffffffffffffffffffffffffffffffffff168273ffffffffffffffffffffffffffffffffffffffff16847f2f8788117e7eff1d82e926ec794901d17c78024a50270940304540a733656f0d60405160405180910390a46001905061198b565b600090505b92915050565b600033905090565b60006119a58383611208565b15611a8057600080600085815260200190815260200160002060000160008473ffffffffffffffffffffffffffffffffffffffff1673ffffffffffffffffffffffffffffffffffffffff16815260200190815260200160002060006101000a81548160ff021916908315150217905550611a1d611991565b73ffffffffffffffffffffffffffffffffffffffff168273ffffffffffffffffffffffffffffffffffffffff16847ff6391f5c32d9c69d2a47ea670b442974b53935d1edc7fd64eb21e047a839171b60405160405180910390a460019050611a85565b600090505b92915050565b611a958282611208565b611ad85780826040517fe2517d3f000000000000000000000000000000000000000000000000000000008152600401611acf929190612c50565b60405180910390fd5b5050565b60405180610120016040528060008152602001606081526020016060815260200160608152602001600061ffff168152602001600073ffffffffffffffffffffffffffffffffffffffff168152602001600073ffffffffffffffffffffffffffffffffffffffff168152602001600081526020016000151581525090565b6000604051905090565b600080fd5b600080fd5b60007fffffffff0000000000000000000000000000000000000000000000000000000082169050919050565b611ba381611b6e565b8114611bae57600080fd5b50565b600081359050611bc081611b9a565b92915050565b600060208284031215611bdc57611bdb611b64565b5b6000611bea84828501611bb1565b91505092915050565b60008115159050919050565b611c0881611bf3565b82525050565b6000602082019050611c236000830184611bff565b92915050565b6000819050919050565b611c3c81611c29565b82525050565b6000602082019050611c576000830184611c33565b92915050565b611c6681611c29565b8114611c7157600080fd5b50565b600081359050611c8381611c5d565b92915050565b600060208284031215611c9f57611c9e611b64565b5b6000611cad84828501611c74565b91505092915050565b600073ffffffffffffffffffffffffffffffffffffffff82169050919050565b6000611ce182611cb6565b9050919050565b611cf181611cd6565b8114611cfc57600080fd5b50565b600081359050611d0e81611ce8565b92915050565b600060208284031215611d2a57611d29611b64565b5b6000611d3884828501611cff565b91505092915050565b600081519050919050565b600082825260208201905092915050565b6000819050602082019050919050565b6000819050919050565b611d8081611d6d565b82525050565b6000611d928383611d77565b60208301905092915050565b6000602082019050919050565b6000611db682611d41565b611dc08185611d4c565b9350611dcb83611d5d565b8060005b83811015611dfc578151611de38882611d86565b9750611dee83611d9e565b925050600181019050611dcf565b5085935050505092915050565b60006020820190508181036000830152611e238184611dab565b905092915050565b60008060408385031215611e4257611e41611b64565b5b6000611e5085828601611c74565b9250506020611e6185828601611cff565b9150509250929050565b611e7481611d6d565b8114611e7f57600080fd5b50565b600081359050611e9181611e6b565b92915050565b600060208284031215611ead57611eac611b64565b5b6000611ebb84828501611e82565b91505092915050565b600081519050919050565b600082825260208201905092915050565b60005b83811015611efe578082015181840152602081019050611ee3565b60008484015250505050565b6000601f19601f8301169050919050565b6000611f2682611ec4565b611f308185611ecf565b9350611f40818560208601611ee0565b611f4981611f0a565b840191505092915050565b600061ffff82169050919050565b611f6b81611f54565b82525050565b611f7a81611cd6565b82525050565b611f8981611bf3565b82525050565b600061012083016000830151611fa86000860182611d77565b5060208301518482036020860152611fc08282611f1b565b91505060408301518482036040860152611fda8282611f1b565b91505060608301518482036060860152611ff48282611f1b565b91505060808301516120096080860182611f62565b5060a083015161201c60a0860182611f71565b5060c083015161202f60c0860182611f71565b5060e083015161204260e0860182611d77565b50610100830151612057610100860182611f80565b508091505092915050565b6000602082019050818103600083015261207c8184611f8f565b905092915050565b600080fd5b600080fd5b7f4e487b7100000000000000000000000000000000000000000000000000000000600052604160045260246000fd5b6120c682611f0a565b810181811067ffffffffffffffff821117156120e5576120e461208e565b5b80604052505050565b60006120f8611b5a565b905061210482826120bd565b919050565b600067ffffffffffffffff8211156121245761212361208e565b5b61212d82611f0a565b9050602081019050919050565b82818337600083830152505050565b600061215c61215784612109565b6120ee565b90508281526020810184848401111561217857612177612089565b5b61218384828561213a565b509392505050565b600082601f8301126121a05761219f612084565b5b81356121b0848260208601612149565b91505092915050565b6000806000606084860312156121d2576121d1611b64565b5b60006121e086828701611e82565b93505060206121f186828701611cff565b925050604084013567ffffffffffffffff81111561221257612211611b69565b5b61221e8682870161218b565b9150509250925092565b61223181611f54565b811461223c57600080fd5b50565b60008135905061224e81612228565b92915050565b6000806000806080858703121561226e5761226d611b64565b5b600085013567ffffffffffffffff81111561228c5761228b611b69565b5b6122988782880161218b565b945050602085013567ffffffffffffffff8111156122b9576122b8611b69565b5b6122c58782880161218b565b935050604085013567ffffffffffffffff8111156122e6576122e5611b69565b5b6122f28782880161218b565b92505060606123038782880161223f565b91505092959194509250565b61231881611d6d565b82525050565b6000602082019050612333600083018461230f565b92915050565b600080604083850312156123505761234f611b64565b5b600061235e85828601611cff565b925050602061236f85828601611e82565b9150509250929050565b600080604083850312156123905761238f611b64565b5b600061239e85828601611e82565b92505060206123af85828601611e82565b9150509250929050565b6123c281611cd6565b82525050565b600082825260208201905092915050565b60006123e482611ec4565b6123ee81856123c8565b93506123fe818560208601611ee0565b61240781611f0a565b840191505092915050565b600060608201905061242760008301866123b9565b612434602083018561230f565b818103604083015261244681846123d9565b9050949350505050565b60006020828403121561246657612465611b64565b5b600082013567ffffffffffffffff81111561248457612483611b69565b5b6124908482850161218b565b91505092915050565b600081519050919050565b600082825260208201905092915050565b6000819050602082019050919050565b60006060830160008301516124dd6000860182611f71565b5060208301516124f06020860182611d77565b50604083015184820360408601526125088282611f1b565b9150508091505092915050565b600061252183836124c5565b905092915050565b6000602082019050919050565b600061254182612499565b61254b81856124a4565b93508360208202850161255d856124b5565b8060005b85811015612599578484038952815161257a8582612515565b945061258583612529565b925060208a01995050600181019050612561565b50829750879550505050505092915050565b600060208201905081810360008301526125c58184612536565b905092915050565b6125d681611f54565b82525050565b6000610120820190506125f2600083018c61230f565b8181036020830152612604818b6123d9565b90508181036040830152612618818a6123d9565b9050818103606083015261262c81896123d9565b905061263b60808301886125cd565b61264860a08301876123b9565b61265560c08301866123b9565b61266260e083018561230f565b612670610100830184611bff565b9a9950505050505050505050565b7f436172206e6f7420666f756e6400000000000000000000000000000000000000600082015250565b60006126b4600d836123c8565b91506126bf8261267e565b602082019050919050565b600060208201905081810360008301526126e3816126a7565b9050919050565b7f4e487b7100000000000000000000000000000000000000000000000000000000600052602260045260246000fd5b6000600282049050600182168061273157607f821691505b602082108103612744576127436126ea565b5b50919050565b7f436172206973206e6f7420616374697665000000000000000000000000000000600082015250565b60006127806011836123c8565b915061278b8261274a565b602082019050919050565b600060208201905081810360008301526127af81612773565b9050919050565b7f4f6e6c792063757272656e74206f776e65722063616e207472616e7366657200600082015250565b60006127ec601f836123c8565b91506127f7826127b6565b602082019050919050565b6000602082019050818103600083015261281b816127df565b9050919050565b7f496e76616c6964206e6577206f776e6572000000000000000000000000000000600082015250565b60006128586011836123c8565b915061286382612822565b602082019050919050565b600060208201905081810360008301526128878161284b565b9050919050565b60008190508160005260206000209050919050565b60006020601f8301049050919050565b600082821b905092915050565b6000600883026128f07fffffffffffffffffffffffffffffffffffffffffffffffffffffffffffffffff826128b3565b6128fa86836128b3565b95508019841693508086168417925050509392505050565b6000819050919050565b600061293761293261292d84611d6d565b612912565b611d6d565b9050919050565b6000819050919050565b6129518361291c565b61296561295d8261293e565b8484546128c0565b825550505050565b600090565b61297a61296d565b612985818484612948565b505050565b5b818110156129a95761299e600082612972565b60018101905061298b565b5050565b601f8211156129ee576129bf8161288e565b6129c8846128a3565b810160208510156129d7578190505b6129eb6129e3856128a3565b83018261298a565b50505b505050565b600082821c905092915050565b6000612a11600019846008026129f3565b1980831691505092915050565b6000612a2a8383612a00565b9150826002028217905092915050565b612a4382611ec4565b67ffffffffffffffff811115612a5c57612a5b61208e565b5b612a668254612719565b612a718282856129ad565b600060209050601f831160018114612aa45760008415612a92578287015190505b612a9c8582612a1e565b865550612b04565b601f198416612ab28661288e565b60005b82811015612ada57848901518255600182019150602085019450602081019050612ab5565b86831015612af75784890151612af3601f891682612a00565b8355505b6001600288020188555050505b505050505050565b60006020820190508181036000830152612b2681846123d9565b905092915050565b600081905092915050565b6000612b4482611ec4565b612b4e8185612b2e565b9350612b5e818560208601611ee0565b80840191505092915050565b6000612b768284612b39565b915081905092915050565b7f56494e20616c7265616479207265676973746572656400000000000000000000600082015250565b6000612bb76016836123c8565b9150612bc282612b81565b602082019050919050565b60006020820190508181036000830152612be681612baa565b9050919050565b7f4e487b7100000000000000000000000000000000000000000000000000000000600052601160045260246000fd5b6000612c2782611d6d565b9150612c3283611d6d565b9250828201905080821115612c4a57612c49612bed565b5b92915050565b6000604082019050612c6560008301856123b9565b612c726020830184611c33565b939250505056fea264697066735822122000f1d02282c3a4b71157e6a12a7ac464cd9eea3b946c0534523ecaa67cb7497864736f6c63430008140033",
  "linkReferences": {},
  "deployedLinkReferences": {}
}